{
  "abi": [
    {
      "anonymous": false,
      "inputs": [
        {
          "indexed": true,
          "internalType": "address",
          "name": "target",
          "type": "address"
        },
        {
          "indexed": true,
          "internalType": "uint256",
          "name": "value",
          "type": "uint256"
        },
        {
          "indexed": false,
          "internalType": "bytes",
          "name": "data",
          "type": "bytes"
        }
      ],
      "name": "TransactionExecuted",
      "type": "event"
    },
    {
      "inputs": [
        {
          "internalType": "address",
          "name": "",
          "type": "address"
        },
        {
          "internalType": "uint256",
          "name": "",
          "type": "uint256"
        },
        {
          "internalType": "bytes",
          "name": "",
          "type": "bytes"
        }
      ],
      "name": "executeCall",
      "outputs": [
        {
          "internalType": "bytes",
          "name": "",
          "type": "bytes"
        }
      ],
      "stateMutability": "payable",
      "type": "function"
    },
    {
      "inputs": [
        {
          "internalType": "bool",
          "name": "val",
          "type": "bool"
        }
      ],
      "name": "initialize",
      "outputs": [],
      "stateMutability": "nonpayable",
      "type": "function"
    },
    {
      "inputs": [],
      "name": "nonce",
      "outputs": [
        {
          "internalType": "uint256",
          "name": "",
          "type": "uint256"
        }
      ],
      "stateMutability": "view",
      "type": "function"
    },
    {
      "inputs": [],
      "name": "owner",
      "outputs": [
        {
          "internalType": "address",
          "name": "",
          "type": "address"
        }
      ],
      "stateMutability": "pure",
      "type": "function"
    },
    {
      "inputs": [],
      "name": "salt",
      "outputs": [
        {
          "internalType": "uint256",
          "name": "",
          "type": "uint256"
        }
      ],
      "stateMutability": "view",
      "type": "function"
    },
    {
      "inputs": [
        {
          "internalType": "bytes4",
          "name": "interfaceId",
          "type": "bytes4"
        }
      ],
      "name": "supportsInterface",
      "outputs": [
        {
          "internalType": "bool",
          "name": "",
          "type": "bool"
        }
      ],
      "stateMutability": "view",
      "type": "function"
    },
    {
      "inputs": [],
      "name": "token",
      "outputs": [
        {
          "internalType": "uint256",
          "name": "",
          "type": "uint256"
        },
        {
          "internalType": "address",
          "name": "",
          "type": "address"
        },
        {
          "internalType": "uint256",
          "name": "",
          "type": "uint256"
        }
      ],
      "stateMutability": "view",
      "type": "function"
    },
    {
      "stateMutability": "payable",
      "type": "receive"
    }
  ],
  "bytecode": {
    "object": "0x608060405234801561001057600080fd5b506104d7806100206000396000f3fe6080604052600436106100745760003560e01c8063affed0e01161004e578063affed0e014610102578063bfa0b13314610126578063d53a822f1461013b578063fc0c546a1461015d57600080fd5b806301ffc9a7146100805780638da5cb5b146100b55780639e5d4c49146100e257600080fd5b3661007b57005b600080fd5b34801561008c57600080fd5b506100a061009b3660046102eb565b610195565b60405190151581526020015b60405180910390f35b3480156100c157600080fd5b506100ca6101bc565b6040516001600160a01b0390911681526020016100ac565b6100f56100f0366004610334565b6101df565b6040516100ac91906103bd565b34801561010e57600080fd5b5061011860005481565b6040519081526020016100ac565b34801561013257600080fd5b506101186101f9565b34801561014757600080fd5b5061015b61015636600461040b565b610208565b005b34801561016957600080fd5b50610172610238565b604080519384526001600160a01b039092166020840152908201526060016100ac565b60006001600160e01b031980831690036101b157506000919050565b505060015460ff1690565b600060405162461bcd60e51b81526004016101d69061042d565b60405180910390fd5b606060405162461bcd60e51b81526004016101d69061042d565b6000610203610250565b905090565b806102255760405162461bcd60e51b81526004016101d69061042d565b6001805460ff1916911515919091179055565b6000806000610245610298565b925092509250909192565b6040805160208082528183019092526000918291906020820181803683370190505090506097607760208301303c80806020019051810190610292919061044f565b91505090565b604080516060808252608082019092526000918291829182919060208201818036833701905050905060f7609760208301303c808060200190518101906102df9190610468565b93509350935050909192565b6000602082840312156102fd57600080fd5b81356001600160e01b03198116811461031557600080fd5b9392505050565b6001600160a01b038116811461033157600080fd5b50565b6000806000806060858703121561034a57600080fd5b84356103558161031c565b935060208501359250604085013567ffffffffffffffff8082111561037957600080fd5b818701915087601f83011261038d57600080fd5b81358181111561039c57600080fd5b8860208285010111156103ae57600080fd5b95989497505060200194505050565b600060208083528351808285015260005b818110156103ea578581018301518582016040015282016103ce565b506000604082860101526040601f19601f8301168501019250505092915050565b60006020828403121561041d57600080fd5b8135801515811461031557600080fd5b602080825260089082015267191a5cd8589b195960c21b604082015260600190565b60006020828403121561046157600080fd5b5051919050565b60008060006060848603121561047d57600080fd5b83519250602084015161048f8161031c565b8092505060408401519050925092509256fea264697066735822122062760d9809ee85f508a2d8d66bde814849a3d16bc799202388608b8655c213f364736f6c63430008130033",
    "linkReferences": {}
  },
  "methodIdentifiers": {
    "executeCall(address,uint256,bytes)": "9e5d4c49",
    "initialize(bool)": "d53a822f",
    "nonce()": "affed0e0",
    "owner()": "8da5cb5b",
    "salt()": "bfa0b133",
    "supportsInterface(bytes4)": "01ffc9a7",
    "token()": "fc0c546a"
  },
  "id": 39
}