{
  "abi": [
    {
      "inputs": [],
      "stateMutability": "nonpayable",
      "type": "constructor"
    },
    {
      "anonymous": false,
      "inputs": [
        {
          "indexed": true,
          "internalType": "address",
          "name": "account",
          "type": "address"
        },
        {
          "indexed": true,
          "internalType": "address",
          "name": "operator",
          "type": "address"
        },
        {
          "indexed": false,
          "internalType": "bool",
          "name": "approved",
          "type": "bool"
        }
      ],
      "name": "ApprovalForAll",
      "type": "event"
    },
    {
      "anonymous": false,
      "inputs": [
        {
          "indexed": true,
          "internalType": "address",
          "name": "operator",
          "type": "address"
        },
        {
          "indexed": true,
          "internalType": "address",
          "name": "from",
          "type": "address"
        },
        {
          "indexed": true,
          "internalType": "address",
          "name": "to",
          "type": "address"
        },
        {
          "indexed": false,
          "internalType": "uint256[]",
          "name": "ids",
          "type": "uint256[]"
        },
        {
          "indexed": false,
          "internalType": "uint256[]",
          "name": "values",
          "type": "uint256[]"
        }
      ],
      "name": "TransferBatch",
      "type": "event"
    },
    {
      "anonymous": false,
      "inputs": [
        {
          "indexed": true,
          "internalType": "address",
          "name": "operator",
          "type": "address"
        },
        {
          "indexed": true,
          "internalType": "address",
          "name": "from",
          "type": "address"
        },
        {
          "indexed": true,
          "internalType": "address",
          "name": "to",
          "type": "address"
        },
        {
          "indexed": false,
          "internalType": "uint256",
          "name": "id",
          "type": "uint256"
        },
        {
          "indexed": false,
          "internalType": "uint256",
          "name": "value",
          "type": "uint256"
        }
      ],
      "name": "TransferSingle",
      "type": "event"
    },
    {
      "anonymous": false,
      "inputs": [
        {
          "indexed": false,
          "internalType": "string",
          "name": "value",
          "type": "string"
        },
        {
          "indexed": true,
          "internalType": "uint256",
          "name": "id",
          "type": "uint256"
        }
      ],
      "name": "URI",
      "type": "event"
    },
    {
      "inputs": [
        {
          "internalType": "address",
          "name": "account",
          "type": "address"
        },
        {
          "internalType": "uint256",
          "name": "id",
          "type": "uint256"
        }
      ],
      "name": "balanceOf",
      "outputs": [
        {
          "internalType": "uint256",
          "name": "",
          "type": "uint256"
        }
      ],
      "stateMutability": "view",
      "type": "function"
    },
    {
      "inputs": [
        {
          "internalType": "address[]",
          "name": "accounts",
          "type": "address[]"
        },
        {
          "internalType": "uint256[]",
          "name": "ids",
          "type": "uint256[]"
        }
      ],
      "name": "balanceOfBatch",
      "outputs": [
        {
          "internalType": "uint256[]",
          "name": "",
          "type": "uint256[]"
        }
      ],
      "stateMutability": "view",
      "type": "function"
    },
    {
      "inputs": [
        {
          "internalType": "address",
          "name": "account",
          "type": "address"
        },
        {
          "internalType": "address",
          "name": "operator",
          "type": "address"
        }
      ],
      "name": "isApprovedForAll",
      "outputs": [
        {
          "internalType": "bool",
          "name": "",
          "type": "bool"
        }
      ],
      "stateMutability": "view",
      "type": "function"
    },
    {
      "inputs": [
        {
          "internalType": "address",
          "name": "to",
          "type": "address"
        },
        {
          "internalType": "uint256",
          "name": "tokenId",
          "type": "uint256"
        },
        {
          "internalType": "uint256",
          "name": "amount",
          "type": "uint256"
        }
      ],
      "name": "mint",
      "outputs": [],
      "stateMutability": "nonpayable",
      "type": "function"
    },
    {
      "inputs": [
        {
          "internalType": "address",
          "name": "from",
          "type": "address"
        },
        {
          "internalType": "address",
          "name": "to",
          "type": "address"
        },
        {
          "internalType": "uint256[]",
          "name": "ids",
          "type": "uint256[]"
        },
        {
          "internalType": "uint256[]",
          "name": "amounts",
          "type": "uint256[]"
        },
        {
          "internalType": "bytes",
          "name": "data",
          "type": "bytes"
        }
      ],
      "name": "safeBatchTransferFrom",
      "outputs": [],
      "stateMutability": "nonpayable",
      "type": "function"
    },
    {
      "inputs": [
        {
          "internalType": "address",
          "name": "from",
          "type": "address"
        },
        {
          "internalType": "address",
          "name": "to",
          "type": "address"
        },
        {
          "internalType": "uint256",
          "name": "id",
          "type": "uint256"
        },
        {
          "internalType": "uint256",
          "name": "amount",
          "type": "uint256"
        },
        {
          "internalType": "bytes",
          "name": "data",
          "type": "bytes"
        }
      ],
      "name": "safeTransferFrom",
      "outputs": [],
      "stateMutability": "nonpayable",
      "type": "function"
    },
    {
      "inputs": [
        {
          "internalType": "address",
          "name": "operator",
          "type": "address"
        },
        {
          "internalType": "bool",
          "name": "approved",
          "type": "bool"
        }
      ],
      "name": "setApprovalForAll",
      "outputs": [],
      "stateMutability": "nonpayable",
      "type": "function"
    },
    {
      "inputs": [
        {
          "internalType": "bytes4",
          "name": "interfaceId",
          "type": "bytes4"
        }
      ],
      "name": "supportsInterface",
      "outputs": [
        {
          "internalType": "bool",
          "name": "",
          "type": "bool"
        }
      ],
      "stateMutability": "view",
      "type": "function"
    },
    {
      "inputs": [
        {
          "internalType": "uint256",
          "name": "",
          "type": "uint256"
        }
      ],
      "name": "uri",
      "outputs": [
        {
          "internalType": "string",
          "name": "",
          "type": "string"
        }
      ],
      "stateMutability": "view",
      "type": "function"
    }
  ],
  "bytecode": {
    "object": "0x60806040523480156200001157600080fd5b506040805160208101909152600081526200002c8162000033565b50620001b6565b6002620000418282620000ea565b5050565b634e487b7160e01b600052604160045260246000fd5b600181811c908216806200007057607f821691505b6020821081036200009157634e487b7160e01b600052602260045260246000fd5b50919050565b601f821115620000e557600081815260208120601f850160051c81016020861015620000c05750805b601f850160051c820191505b81811015620000e157828155600101620000cc565b5050505b505050565b81516001600160401b0381111562000106576200010662000045565b6200011e816200011784546200005b565b8462000097565b602080601f8311600181146200015657600084156200013d5750858301515b600019600386901b1c1916600185901b178555620000e1565b600085815260208120601f198616915b82811015620001875788860151825594840194600190910190840162000166565b5085821015620001a65787850151600019600388901b60f8161c191681555b5050505050600190811b01905550565b6114f980620001c66000396000f3fe608060405234801561001057600080fd5b50600436106100925760003560e01c80632eb2c2d6116100665780632eb2c2d6146101155780634e1273f414610128578063a22cb46514610148578063e985e9c51461015b578063f242432a1461019757600080fd5b8062fdd58e1461009757806301ffc9a7146100bd5780630e89341c146100e0578063156e29f614610100575b600080fd5b6100aa6100a5366004610c89565b6101aa565b6040519081526020015b60405180910390f35b6100d06100cb366004610ccc565b610243565b60405190151581526020016100b4565b6100f36100ee366004610cf0565b610293565b6040516100b49190610d4f565b61011361010e366004610d62565b610327565b005b610113610123366004610ee1565b610347565b61013b610136366004610f8b565b610393565b6040516100b49190611091565b6101136101563660046110a4565b6104bd565b6100d06101693660046110e0565b6001600160a01b03918216600090815260016020908152604080832093909416825291909152205460ff1690565b6101136101a5366004611113565b6104cc565b60006001600160a01b03831661021a5760405162461bcd60e51b815260206004820152602a60248201527f455243313135353a2061646472657373207a65726f206973206e6f742061207660448201526930b634b21037bbb732b960b11b60648201526084015b60405180910390fd5b506000818152602081815260408083206001600160a01b03861684529091529020545b92915050565b60006001600160e01b03198216636cdb3d1360e11b148061027457506001600160e01b031982166303a24d0760e21b145b8061023d57506301ffc9a760e01b6001600160e01b031983161461023d565b6060600280546102a290611178565b80601f01602080910402602001604051908101604052809291908181526020018280546102ce90611178565b801561031b5780601f106102f05761010080835404028352916020019161031b565b820191906000526020600020905b8154815290600101906020018083116102fe57829003601f168201915b50505050509050919050565b61034283838360405180602001604052806000815250610511565b505050565b6001600160a01b03851633148061036357506103638533610169565b61037f5760405162461bcd60e51b8152600401610211906111b2565b61038c8585858585610625565b5050505050565b606081518351146103f85760405162461bcd60e51b815260206004820152602960248201527f455243313135353a206163636f756e747320616e6420696473206c656e677468604482015268040dad2e6dac2e8c6d60bb1b6064820152608401610211565b6000835167ffffffffffffffff81111561041457610414610d95565b60405190808252806020026020018201604052801561043d578160200160208202803683370190505b50905060005b84518110156104b55761048885828151811061046157610461611200565b602002602001015185838151811061047b5761047b611200565b60200260200101516101aa565b82828151811061049a5761049a611200565b60209081029190910101526104ae8161122c565b9050610443565b509392505050565b6104c8338383610802565b5050565b6001600160a01b0385163314806104e857506104e88533610169565b6105045760405162461bcd60e51b8152600401610211906111b2565b61038c85858585856108e2565b6001600160a01b0384166105715760405162461bcd60e51b815260206004820152602160248201527f455243313135353a206d696e7420746f20746865207a65726f206164647265736044820152607360f81b6064820152608401610211565b33600061057d85610a0c565b9050600061058a85610a0c565b90506000868152602081815260408083206001600160a01b038b168452909152812080548792906105bc908490611245565b909155505060408051878152602081018790526001600160a01b03808a1692600092918716917fc3d58168c5ae7397731d063d5bbf3d657854427343f4c083240f7aacaa2d0f62910160405180910390a461061c83600089898989610a57565b50505050505050565b81518351146106875760405162461bcd60e51b815260206004820152602860248201527f455243313135353a2069647320616e6420616d6f756e7473206c656e677468206044820152670dad2e6dac2e8c6d60c31b6064820152608401610211565b6001600160a01b0384166106ad5760405162461bcd60e51b815260040161021190611258565b3360005b84518110156107945760008582815181106106ce576106ce611200565b6020026020010151905060008583815181106106ec576106ec611200565b602090810291909101810151600084815280835260408082206001600160a01b038e16835290935291909120549091508181101561073c5760405162461bcd60e51b81526004016102119061129d565b6000838152602081815260408083206001600160a01b038e8116855292528083208585039055908b16825281208054849290610779908490611245565b925050819055505050508061078d9061122c565b90506106b1565b50846001600160a01b0316866001600160a01b0316826001600160a01b03167f4a39dc06d4c0dbc64b70af90fd698a233a518aa5d07e595d983b8c0526c8f7fb87876040516107e49291906112e7565b60405180910390a46107fa818787878787610bb2565b505050505050565b816001600160a01b0316836001600160a01b0316036108755760405162461bcd60e51b815260206004820152602960248201527f455243313135353a2073657474696e6720617070726f76616c20737461747573604482015268103337b91039b2b63360b91b6064820152608401610211565b6001600160a01b03838116600081815260016020908152604080832094871680845294825291829020805460ff191686151590811790915591519182527f17307eab39ab6107e8899845ad3d59bd9653f200f220920489ca2b5937696c31910160405180910390a3505050565b6001600160a01b0384166109085760405162461bcd60e51b815260040161021190611258565b33600061091485610a0c565b9050600061092185610a0c565b90506000868152602081815260408083206001600160a01b038c168452909152902054858110156109645760405162461bcd60e51b81526004016102119061129d565b6000878152602081815260408083206001600160a01b038d8116855292528083208985039055908a168252812080548892906109a1908490611245565b909155505060408051888152602081018890526001600160a01b03808b16928c821692918816917fc3d58168c5ae7397731d063d5bbf3d657854427343f4c083240f7aacaa2d0f62910160405180910390a4610a01848a8a8a8a8a610a57565b505050505050505050565b60408051600180825281830190925260609160009190602080830190803683370190505090508281600081518110610a4657610a46611200565b602090810291909101015292915050565b6001600160a01b0384163b156107fa5760405163f23a6e6160e01b81526001600160a01b0385169063f23a6e6190610a9b9089908990889088908890600401611315565b6020604051808303816000875af1925050508015610ad6575060408051601f3d908101601f19168201909252610ad39181019061135a565b60015b610b8257610ae2611377565b806308c379a003610b1b5750610af6611393565b80610b015750610b1d565b8060405162461bcd60e51b81526004016102119190610d4f565b505b60405162461bcd60e51b815260206004820152603460248201527f455243313135353a207472616e7366657220746f206e6f6e2d455243313135356044820152732932b1b2b4bb32b91034b6b83632b6b2b73a32b960611b6064820152608401610211565b6001600160e01b0319811663f23a6e6160e01b1461061c5760405162461bcd60e51b81526004016102119061141d565b6001600160a01b0384163b156107fa5760405163bc197c8160e01b81526001600160a01b0385169063bc197c8190610bf69089908990889088908890600401611465565b6020604051808303816000875af1925050508015610c31575060408051601f3d908101601f19168201909252610c2e9181019061135a565b60015b610c3d57610ae2611377565b6001600160e01b0319811663bc197c8160e01b1461061c5760405162461bcd60e51b81526004016102119061141d565b80356001600160a01b0381168114610c8457600080fd5b919050565b60008060408385031215610c9c57600080fd5b610ca583610c6d565b946020939093013593505050565b6001600160e01b031981168114610cc957600080fd5b50565b600060208284031215610cde57600080fd5b8135610ce981610cb3565b9392505050565b600060208284031215610d0257600080fd5b5035919050565b6000815180845260005b81811015610d2f57602081850181015186830182015201610d13565b506000602082860101526020601f19601f83011685010191505092915050565b602081526000610ce96020830184610d09565b600080600060608486031215610d7757600080fd5b610d8084610c6d565b95602085013595506040909401359392505050565b634e487b7160e01b600052604160045260246000fd5b601f8201601f1916810167ffffffffffffffff81118282101715610dd157610dd1610d95565b6040525050565b600067ffffffffffffffff821115610df257610df2610d95565b5060051b60200190565b600082601f830112610e0d57600080fd5b81356020610e1a82610dd8565b604051610e278282610dab565b83815260059390931b8501820192828101915086841115610e4757600080fd5b8286015b84811015610e625780358352918301918301610e4b565b509695505050505050565b600082601f830112610e7e57600080fd5b813567ffffffffffffffff811115610e9857610e98610d95565b604051610eaf601f8301601f191660200182610dab565b818152846020838601011115610ec457600080fd5b816020850160208301376000918101602001919091529392505050565b600080600080600060a08688031215610ef957600080fd5b610f0286610c6d565b9450610f1060208701610c6d565b9350604086013567ffffffffffffffff80821115610f2d57600080fd5b610f3989838a01610dfc565b94506060880135915080821115610f4f57600080fd5b610f5b89838a01610dfc565b93506080880135915080821115610f7157600080fd5b50610f7e88828901610e6d565b9150509295509295909350565b60008060408385031215610f9e57600080fd5b823567ffffffffffffffff80821115610fb657600080fd5b818501915085601f830112610fca57600080fd5b81356020610fd782610dd8565b604051610fe48282610dab565b83815260059390931b850182019282810191508984111561100457600080fd5b948201945b838610156110295761101a86610c6d565b82529482019490820190611009565b9650508601359250508082111561103f57600080fd5b5061104c85828601610dfc565b9150509250929050565b600081518084526020808501945080840160005b838110156110865781518752958201959082019060010161106a565b509495945050505050565b602081526000610ce96020830184611056565b600080604083850312156110b757600080fd5b6110c083610c6d565b9150602083013580151581146110d557600080fd5b809150509250929050565b600080604083850312156110f357600080fd5b6110fc83610c6d565b915061110a60208401610c6d565b90509250929050565b600080600080600060a0868803121561112b57600080fd5b61113486610c6d565b945061114260208701610c6d565b93506040860135925060608601359150608086013567ffffffffffffffff81111561116c57600080fd5b610f7e88828901610e6d565b600181811c9082168061118c57607f821691505b6020821081036111ac57634e487b7160e01b600052602260045260246000fd5b50919050565b6020808252602e908201527f455243313135353a2063616c6c6572206973206e6f7420746f6b656e206f776e60408201526d195c881bdc88185c1c1c9bdd995960921b606082015260800190565b634e487b7160e01b600052603260045260246000fd5b634e487b7160e01b600052601160045260246000fd5b60006001820161123e5761123e611216565b5060010190565b8082018082111561023d5761023d611216565b60208082526025908201527f455243313135353a207472616e7366657220746f20746865207a65726f206164604082015264647265737360d81b606082015260800190565b6020808252602a908201527f455243313135353a20696e73756666696369656e742062616c616e636520666f60408201526939103a3930b739b332b960b11b606082015260800190565b6040815260006112fa6040830185611056565b828103602084015261130c8185611056565b95945050505050565b6001600160a01b03868116825285166020820152604081018490526060810183905260a06080820181905260009061134f90830184610d09565b979650505050505050565b60006020828403121561136c57600080fd5b8151610ce981610cb3565b600060033d11156113905760046000803e5060005160e01c5b90565b600060443d10156113a15790565b6040516003193d81016004833e81513d67ffffffffffffffff81602484011181841117156113d157505050505090565b82850191508151818111156113e95750505050505090565b843d87010160208285010111156114035750505050505090565b61141260208286010187610dab565b509095945050505050565b60208082526028908201527f455243313135353a204552433131353552656365697665722072656a656374656040820152676420746f6b656e7360c01b606082015260800190565b6001600160a01b0386811682528516602082015260a06040820181905260009061149190830186611056565b82810360608401526114a38186611056565b905082810360808401526114b78185610d09565b9897505050505050505056fea264697066735822122090ad40c25ba0073280cb35ebf306a43d4ff9aa3df85f62189b5b47fc249924fb64736f6c63430008130033",
    "linkReferences": {}
  },
  "methodIdentifiers": {
    "balanceOf(address,uint256)": "00fdd58e",
    "balanceOfBatch(address[],uint256[])": "4e1273f4",
    "isApprovedForAll(address,address)": "e985e9c5",
    "mint(address,uint256,uint256)": "156e29f6",
    "safeBatchTransferFrom(address,address,uint256[],uint256[],bytes)": "2eb2c2d6",
    "safeTransferFrom(address,address,uint256,uint256,bytes)": "f242432a",
    "setApprovalForAll(address,bool)": "a22cb465",
    "supportsInterface(bytes4)": "01ffc9a7",
    "uri(uint256)": "0e89341c"
  },
  "id": 38
}