{
  "abi": [
    {
      "inputs": [],
      "name": "creationCode",
      "outputs": [
        {
          "internalType": "bytes",
          "name": "",
          "type": "bytes"
        }
      ],
      "stateMutability": "view",
      "type": "function"
    }
  ],
  "bytecode": {
    "object": "0x6101a361003a600b82828239805160001a60731461002d57634e487b7160e01b600052600060045260246000fd5b30600052607381538281f3fe73000000000000000000000000000000000000000030146080604052600436106100355760003560e01c80637213edad1461003a575b600080fd5b610042610058565b60405161004f9190610074565b60405180910390f35b6040518060e0016040528060ab81526020016100c360ab913981565b600060208083528351808285015260005b818110156100a157858101830151858201604001528201610085565b506000604082860101526040601f19601f830116850101925050509291505056fe60208038033d393d517f360894a13ba1a3210667c828492db98dca3e2076cc3735a920a3ca505d382bbc5560f78060343d393df360003560e01c635c60da1b1461004e57363d3d373d3d363d7f360894a13ba1a3210667c828492db98dca3e2076cc3735a920a3ca505d382bbc545af43d6000803e610049573d6000fd5b3d6000f35b7f360894a13ba1a3210667c828492db98dca3e2076cc3735a920a3ca505d382bbc543d5260203df3a264697066735822122070cc6139b168e76afeb632b02631f65232b5d6ab5f723a374d08c1726be2634064736f6c63430008130033",
    "linkReferences": {}
  },
  "methodIdentifiers": {
    "creationCode()": "7213edad"
  },
  "id": 36
}