{
  "abi": [
    {
      "inputs": [],
      "name": "InitializationFailed",
      "type": "error"
    },
    {
      "anonymous": false,
      "inputs": [
        {
          "indexed": false,
          "internalType": "address",
          "name": "account",
          "type": "address"
        },
        {
          "indexed": false,
          "internalType": "address",
          "name": "implementation",
          "type": "address"
        },
        {
          "indexed": false,
          "internalType": "uint256",
          "name": "chainId",
          "type": "uint256"
        },
        {
          "indexed": false,
          "internalType": "address",
          "name": "tokenContract",
          "type": "address"
        },
        {
          "indexed": false,
          "internalType": "uint256",
          "name": "tokenId",
          "type": "uint256"
        },
        {
          "indexed": false,
          "internalType": "uint256",
          "name": "salt",
          "type": "uint256"
        }
      ],
      "name": "AccountCreated",
      "type": "event"
    },
    {
      "inputs": [
        {
          "internalType": "address",
          "name": "implementation",
          "type": "address"
        },
        {
          "internalType": "uint256",
          "name": "chainId",
          "type": "uint256"
        },
        {
          "internalType": "address",
          "name": "tokenContract",
          "type": "address"
        },
        {
          "internalType": "uint256",
          "name": "tokenId",
          "type": "uint256"
        },
        {
          "internalType": "uint256",
          "name": "salt",
          "type": "uint256"
        }
      ],
      "name": "account",
      "outputs": [
        {
          "internalType": "address",
          "name": "",
          "type": "address"
        }
      ],
      "stateMutability": "view",
      "type": "function"
    },
    {
      "inputs": [
        {
          "internalType": "address",
          "name": "implementation",
          "type": "address"
        },
        {
          "internalType": "uint256",
          "name": "chainId",
          "type": "uint256"
        },
        {
          "internalType": "address",
          "name": "tokenContract",
          "type": "address"
        },
        {
          "internalType": "uint256",
          "name": "tokenId",
          "type": "uint256"
        },
        {
          "internalType": "uint256",
          "name": "salt",
          "type": "uint256"
        },
        {
          "internalType": "bytes",
          "name": "initData",
          "type": "bytes"
        }
      ],
      "name": "createAccount",
      "outputs": [
        {
          "internalType": "address",
          "name": "",
          "type": "address"
        }
      ],
      "stateMutability": "nonpayable",
      "type": "function"
    }
  ],
  "bytecode": {
    "object": "0x608060405234801561001057600080fd5b50610617806100206000396000f3fe608060405234801561001057600080fd5b50600436106100365760003560e01c80635e9bc5361461003b578063da7323b31461006a575b600080fd5b61004e6100493660046103da565b61007d565b6040516001600160a01b03909116815260200160405180910390f35b61004e610078366004610428565b6100ac565b60008061008d87878787876101f2565b805160209091012090506100a18382610277565b979650505050505050565b6000806100bc89898989896101f2565b905060006100d48660001b8380519060200120610277565b90506001600160a01b0381163b156100ef5791506100a19050565b6100fb6000878461028b565b90508315610185576000816001600160a01b0316868660405161011f9291906104d9565b6000604051808303816000865af19150503d806000811461015c576040519150601f19603f3d011682016040523d82523d6000602084013e610161565b606091505b505090508061018357604051630337323560e31b815260040160405180910390fd5b505b604080516001600160a01b0383811682528c811660208301528183018c90528a1660608201526080810189905260a0810188905290517f07fba7bba1191da7ee1155dcfa0030701c9c9a9cc34a93b991fc6fd0c9268d8f9181900360c00190a19998505050505050505050565b60606040518060e0016040528060ab815260200161053760ab913960408051602081018590529081018790526001600160a01b03808716606083015260808201869052881660a082015260c00160408051601f198184030181529082905261025d9291602001610519565b604051602081830303815290604052905095945050505050565b6000610284838330610394565b9392505050565b6000834710156102e25760405162461bcd60e51b815260206004820152601d60248201527f437265617465323a20696e73756666696369656e742062616c616e636500000060448201526064015b60405180910390fd5b81516000036103335760405162461bcd60e51b815260206004820181905260248201527f437265617465323a2062797465636f6465206c656e677468206973207a65726f60448201526064016102d9565b8282516020840186f590506001600160a01b0381166102845760405162461bcd60e51b815260206004820152601960248201527f437265617465323a204661696c6564206f6e206465706c6f790000000000000060448201526064016102d9565b6000604051836040820152846020820152828152600b8101905060ff815360559020949350505050565b80356001600160a01b03811681146103d557600080fd5b919050565b600080600080600060a086880312156103f257600080fd5b6103fb866103be565b945060208601359350610410604087016103be565b94979396509394606081013594506080013592915050565b600080600080600080600060c0888a03121561044357600080fd5b61044c886103be565b965060208801359550610461604089016103be565b9450606088013593506080880135925060a088013567ffffffffffffffff8082111561048c57600080fd5b818a0191508a601f8301126104a057600080fd5b8135818111156104af57600080fd5b8b60208285010111156104c157600080fd5b60208301945080935050505092959891949750929550565b8183823760009101908152919050565b6000815160005b8181101561050a57602081850181015186830152016104f0565b50600093019283525090919050565b600061052e61052883866104e9565b846104e9565b94935050505056fe60208038033d393d517f360894a13ba1a3210667c828492db98dca3e2076cc3735a920a3ca505d382bbc5560f78060343d393df360003560e01c635c60da1b1461004e57363d3d373d3d363d7f360894a13ba1a3210667c828492db98dca3e2076cc3735a920a3ca505d382bbc545af43d6000803e610049573d6000fd5b3d6000f35b7f360894a13ba1a3210667c828492db98dca3e2076cc3735a920a3ca505d382bbc543d5260203df3a26469706673582212200aa60a9c6af996d35cad25ee5a1057ba7d0cf9351cddebc27855b63ef74caf6c64736f6c63430008130033",
    "linkReferences": {}
  },
  "methodIdentifiers": {
    "account(address,uint256,address,uint256,uint256)": "5e9bc536",
    "createAccount(address,uint256,address,uint256,uint256,bytes)": "da7323b3"
  },
  "id": 33
}